:10200000008000207D170100791701004971000050
:1020100000000000000000000000000000000000C0
:10202000000000000000000000000000791701001F
:10203000000000000000000079170100791701007E
:10204000791701007917010079170100791701004C
:10205000F9B5010079170100D5DA010055A3010097
:102060007917010045D7010055D7010065D7010058
:1020700075D7010085D7010095D70100DDC90100A2
:10208000EDC90100FDC901000DCA010019CA010016
:1020900025CA0100000000000000000079170100BF
:1020A00079170100791701007917010079170100EC
:1020B000000000007CB0EE877CB0EE87FF00FF00E0
:1020C000FF00FF00FF00FF00FF00FF00FF00FF0018
:1020D000FF00FF00FF00FF00FF00FF00FF00FF0008
:1020E000FF00FF00FF00FF00FF00FF0010B5064CDF
:1020F0002378002B07D1054B002B02D0044800E0C9
:1021000000BF0123237010BDE80200200000000082
:102110005CB80200044B10B5002B03D003490448FF
:1021200000E000BF10BDC04600000000EC0200202F
:102130005CB8020070B505000E0000F06BFA041EDA
:102140000ED00368DB6A9847082D0AD02B00093BA4
:10215000012B12D91023320029000D2004F044FC79
:1021600070BD236820005B6A98470228F2DC236870
:1021700004211B6A20009847ECE7236820005B6A73
:1021800098470528E6DC236808211B6A2000984749
:10219000E0E7C04670B5050000F03CFA041E36D0FA
:1021A0000368DB6A9847012D3DD032DD022D36D021
:1021B000032D2CD1200010F047FE1DF04BFB061C18
:1021C000200010F04FFE1DF045FB051C200010F014
:1021D00057FE1DF03FFB311C041C301C1DF00EF897
:1021E000291C061C281C1DF009F8011C301C1CF0C1
:1021F00093FC211C051C201C1DF000F8011C281C50
:102200001CF08AFC21F01AFA1DF004FB00E000200B
:1022100070BD002DFBD1200010F016FEF8E7200065
:1022200010F02EFEF4E7200010F01CFEF0E7C04690
:1022300070B5050000F0EEF9041E0AD00368DB6AF1
:102240009847002D07D0012D03D1200010F0C6FEC5
:1022500000E0002070BD200010F096FEFAE7C046B6
:1022600010B5040000F0D6F9002803D0036821005F
:102270001B6A984710BDC0460048704716FCFFFF18
:102280007047C04610B50400024B036010F094FB89
:10229000200010BD20A6020010B50400044B03600E
:1022A00010F08AFB200026F005FC200010BDC0467F
:1022B00020A60200F0B5C6460F2600B5032184B063
:1022C0000500512001F082FF8024310003116400D9
:1022D000070001401E40044076D1C24B3200C24884
:1022E0000FF0EEFC621E94410F21E2B23940330040
:1022F000280015F069FE0023BC48AB600FF0E0FC3D
:1023000001210320494201F061FF05F01DFA01217E
:1023100004004942022001F059FF05F015FA002C93
:1023200054D0002852D00100200004F05BFF071EAB
:1023300064D001214620494201F048FF04003828BA
:1023400000D1D4E025DD3A2800D1BBE068285DD17A
:1023500001210120494201F039FF05F0F5F98046DD
:102360004C2026F0B6FB05230094019342462B0037
:102370003900060013F0E2FBAE60336830009B6A60
:102380009847A8680368DB6A984799480FF098FC5B
:1023900037E0302801D0322838D1012101204942CC
:1023A00001F014FF05F0D0F980464C2026F091FB97
:1023B000052306000193A4B200942B004246390085
:1023C000300013F06BF9D7E78A4B87E78A480FF0A4
:1023D00077FC01211920494201F0F8FE05F0B4F91B
:1023E000012104004942182001F0F0FE05F0ACF98B
:1023F0000100200004F0F6FE071E9AD17F480FF07E
:102400005FFC280004B004BC9046F0BD002301240A
:10241000AB603B68019400941E6A0F230F226B444B
:1024200032213800B047002800D1A4E03B68019475
:1024300000941E6A0F230F226B4430213800B047EE
:1024400000286CD03B68019400941E6A0F230D2273
:102450006B4438213800B047002800D191E03B6838
:10246000019400941E6A0F230D226B443A21380018
:10247000B047002800D19BE03B68019400941C6A9F
:102480000F2375226B4468213800A04700285AD1D9
:1024900068215B480FF014FC01210120494201F042
:1024A00095FE05F051F904004C2026F012FB05239F
:1024B00001936333009322002B003900060013F0D0
:1024C0003DFB59E701210120494201F07FFE05F063
:1024D0003BF98046442026F0FCFA05230094019342
:1024E00042462B003900060013F07EFA44E7012132
:1024F0000120494201F06AFE05F026F98046442099
:1025000026F0E7FA05230600019342462B000094CB
:102510003900300013F068FA3A4B33602CE7302171
:1025200037480FF0CDFB302401210120494201F052
:102530004DFE05F009F980464C2026F0CAFA052325
:102540000600019338E730480FF0BAFBAE68002E62
:1025500000D012E701210320494201F037FE05F0C7
:10256000F3F8002803D029480FF0AAFB49E72848D0
:102570000FF0A6FB45E7322121480FF0A1FB3224E2
:10258000D2E738211E480FF09BFB01210120494270
:1025900001F01CFE05F0D8F80400442026F099FA5A
:1025A000052301933333009306002B002200AFE78D
:1025B0003A2113480FF084FB01210120494201F028
:1025C00005FE05F0C1F80400442026F082FA052338
:1025D00001933533009322002B003900060013F0DD
:1025E00003FAC9E69C930200A4930200C49302007C
:1025F0008494020094930200D4930200E8930200B2
:1026000014940200609302000094020028940200D7
:102610006494020070B5114C2368002B01D09868B7
:1026200070BD01210120494201F0D0FD05F08CF878
:10263000002808D00C2026F04CFA0500FFF73AFEDF
:102640002560A868ECE701210320494201F0BEFDA6
:1026500005F07AF80028EDD1E2E7C0460403002037
:1026600010B501F0F9FE1FF0B9FE01F0E7FA10BD58
:1026700010B501F0F1FE20F05DFA01F0DFFA10BDB7
:1026800010B501F0E9FE1FF02BFF01F0D7FA10BDE5
:1026900010B501F0E1FE20F009FE01F0CFFA10BD07
:1026A00010B501F0D9FE20F0DBF901F0C7FA10BD3A
:1026B00010B501F0D1FE20F057F901F0BFFA10BDBE
:1026C00010B501F0C9FE1FF0C5F801F0B7FA10BD52
:1026D00010B501F0C1FE20F089F801F0AFFA10BD8D
:1026E00010B50C000299914221DB002B0BD1042A7A
:1026F00017D0022A01D1C3070FD50100200009F02D
:102700005DF9002008E08018A218013803782370D2
:102710000134A242F9D1002010BD0388002023809B
:10272000FAE78307E9D1036800202360F4E700217A
:1027300020000AF06FFB01204042EDE708307047AF
:1027400003000020002B06D0002904DB5A688A42CF
:1027500001DD5B18187A7047002806D0002904DBD9
:1027600043688B4201DD401802727047030000206D
:10277000002B06D0002904DB5A68914201DA5B186D
:10278000187A70470123820703D1000F4342584152
:10279000C3B218007047C046002806D0002904DBE9
:1027A0004368994201DA40180272704770B5002BF5
:1027B00022DB002920DB45688D421DDB54686D1A41
:1027C000E41AAC420EDC002C16DB050016000835BE
:1027D0000836824208D068182200F11809F0EEF895
:1027E000002070BD2C00EEE7ED18701822002900C3
:1027F00026F09EF90020F4E701204042F1E7C046B0
:102800004068704710B5002A0DDB446894420ADB2B
:10281000002B00DA2300A41A9C4205DC0830801843
:1028200022000AF0F7FA10BD1C00083080182200C0
:102830000AF0F0FAF7E7C04610B543681C008B4277
:1028400000DD0C00002A00DA1A00191B914200DD9D
:1028500011000830001900F043FF10BD70B50E00E4
:10286000002B01DA43689B1A002A1DDB4468991883
:10287000A14219DC914217DB002B15D0710013D057
:102880005942B14211DAB3420FDD08308518002EEB
:1028900012DB9C1BA9192200280026F049F92819EF
:1028A000320000210AF0B6FA70BD012300225B421B
:1028B0000021FFF7A7FFF7E774429A1929002819AA
:1028C00026F036F92200002128000AF0A3FAEBE7EF
:1028D00010B54168083000F073FE10BDF8B54368CC
:1028E00005005900002000F0EFFD6B688446002BC6
:1028F00016DD07262B0002000F277642094C08330D
:102900000632761B19780911615C1170197839400B
:10291000615C51706868F118023201338842F1DC61
:102920006046F8BD1C95020070B505001600080051
:102930001C1E01DA6B689C1A002E2BDB6A68A31937
:10294000934227DCB34225DB002C23D0430021D067
:10295000002801DA2302C01821001BF079FE0029AB
:1029600000DA09190835AD1969182C198D4211D0F2
:102970000B0005E003008A420DD01500934209D0F8
:1029800018782E782870581C6A1C1E708442F1D169
:102990000B00F2E770BD0100EFE7C046012300B570
:1029A0005B4283B000930023FFF700FF03B000BD3C
:1029B00010B503000C00002000290DDD5968083314
:1029C000180002F053FB1F2C06DC0300E3405840C4
:1029D0000123A340013B184010BDC04610B50100C3
:1029E000002000F07DFE10BD70B50021050000F054
:1029F00013FE0100002000F073FE01000400083106
:102A0000280000F009FE200070BDC04630B504006B
:102A100083B00D00102A0DD8474992008A58974676
:102A2000180001F037FE0090032D03DDA30700D04E
:102A30007CE0206003B030BD180001F097FD002D50
:102A4000F8DD2070F6E7180001F090FD012DF1DDB2
:102A500060700004000E2070ECE7180001F02AFD01
:102A60000090032DE6DD6B461B78E3706B465B78C8
:102A7000A3706B469B7863706B46DB782370D9E755
:102A8000180001F0E9FC00900191072DD2DD230030
:102A90006A4608331178013B197001329C42F9D122
:102AA000C8E7180001F0F6FD0090032DDBDCC1E75C
:102AB000180001F05BFD6B461880012DBADDE307BD
:102AC00032D502226946200008F078FFB2E71800EC
:102AD00001F04CFD0090032DC5DCABE7180001F0C0
:102AE000E9FC0090032DA1DCA4E7180001F03EFDF5
:102AF0006B4680B21880012D9CDDE0E7180001F0E4
:102B000035FD0090032D00DD90E793E7180001F0FC
:102B1000A3FC00900191072D00DC8BE70822694699
:102B2000200008F04BFF85E7208083E704226946F8
:102B3000200008F043FF7DE79494020010B5002ABE
:102B400007DB44680830A41A80180A002100FFF748
:102B50005DFF10BD10B584B0102A00D977E03D4B61
:102B600092009B589F460123009102A90822FFF77B
:102B7000B7FD0298039901F061F804B010BD00237D
:102B800002AC009101222100FFF7AAFD002020568F
:102B900001F052F9F1E7002302AC0091012221007B
:102BA000FFF79EFD207801F047F9E6E7002302AC2D
:102BB000009102222100FFF793FD0023E05E01F067
:102BC0003BF9DAE7002302AC009102222100FFF773
:102BD00087FD208801F030F9CFE70023009104221F
:102BE00002A9FFF77DFD029801F026F9C5E702ACC6
:102BF00000910123C6E702AC00910123CEE702ACAD
:102C000000910123D5E702AC00910123DDE700919B
:102C10000123E4E700230091042202A9FFF760FDED
:102C2000029801F015F9A8E700910123F4E70023C9
:102C30000091042202A9FFF753FD029801F0F6F873
:102C40009BE70091002390E700910123F1E700202A
:102C500093E7C046D894020010B5002A08DB436809
:102C600008309B1A80180A001900FFF773FF10BD87
:102C7000002001F0E1F8FAE710B503F09FFD10BD68
:102C800010B503F09FFD8000800810BD10B503F063
:102C9000ABFE10BD10B50EF041FD10BD10B5C11753
:102CA00003F04EFD10BDC04610B503F05DFD10BD34
:102CB00010B503F069FD10BD00B583B003F07AFDD7
:102CC000009001910821684602F0D0F98000800848
:102CD00003B000BD00B583B003F06CFD009001911E
:102CE0000821684600F0FCFC03B000BD70B50C1E66
:102CF0000CD00B6808001B6A9847236805005B6AC4
:102D0000200098470100280005F082F970BDC046F8
:102D100010B502F0C5F810BD10B5012002F070FB2F
:102D200010BDC04610B5022002F06AFB01480AF04F
:102D30009FFE10BD93030000014B18607047C04612
:102D4000080300207047C04600207047F0B5DE46FB
:102D500057464E464546E0B585B0002A00DCE8E01F
:102D60003F2300259A46BF3B9B469F339846103B26
:102D700000249946019522E01E004746BE43F6B264
:102D8000C02E36D01E004F46BE43F6B2E02E4BD0CA
:102D9000F8261E40F02E67D0019D013402350195C2
:102DA00000280AD040279E097F423E4306705646BF
:102DB00033405E46334343700230944210DA0B5D79
:102DC0005EB2002ED8DB01347F2B00D99FE0019D3D
:102DD000013501950028F0D0037001309442EEDBFC
:102DE000019D280005B03CBC90469946A246AB46E2
:102DF000F0BD661CB4469642C4DA0E197678554684
:102E00003700AF43802FBDD1F8279D01FF002F4031
:102E100055462E4037437F2F77DC019C02340194C6
:102E200064460028BED1CAE7A61C9642B0DA5746CF
:102E30000E1975780295BD43802DA9D1B67835005D
:102E4000BD43802DA4D11D072D0CAC4665463E40E8
:102E50002E43029DAF01FC252D012F403E434D4FD7
:102E6000BE4299DD033436E0E61C964294DA5646BB
:102E70000F197D780295B543802D00D08CE7BD7881
:102E80000395B543802D00D086E7FD782F00AC4632
:102E9000B743802F00D07FE7E0279D047F033D40AC
:102EA000674637403D43AC46FC27029DBF022E03D8
:102EB00065463E403543AC46FC27039D3F01AE01CD
:102EC00065463E402E43344D344FAC46B444BC4579
:102ED00000D961E70434324B9E422CD8019B033366
:102EE0000193002800D168E72025330B6D422B4366
:102EF00055460370B3092B405D462B434370534640
:102F00001E402E438670033057E73B000234019D7C
:102F100002350195002800D14FE740259E096D42FA
:102F20002E4355462B405D462B43067043700230BE
:102F300043E7002555E7019B06330193002800D1A4
:102F40003BE7D8252D02AC46ED2505705546124BC2
:102F5000F3189E0A6644B7092F405D462F43554635
:102F60002E405D462E43DC252D02AC46ED25C57076
:102F700055469B059B0D634486709E092E405D4619
:102F80002E4355462B405D462B43477006714371D7
:102F9000063012E7FF0700000000FFFFFFFF0F00F1
:102FA000FFFF000003785AB2002A01DB18007047C7
:102FB0001F2219009143C02910D0F0221A40E02AA4
:102FC000F4D1FC214278090192011B071B0C0A4035
:102FD0001A433F23807803401343E7E7F8229B011D
:102FE000D200134042783F2010400343DEE7C04642
:102FF000F0B5C5888D4230D32D090B096D00868848
:10300000002A2CD182685519002B09D01A48844611
:1030100063445B009B5AF61AED180F23B6B21940B1
:103020000F20002200231F27844602E001339E4226
:1030300013DBE8180132047891420FDB60B20028FC
:10304000F4DA2000B843C02813D060468443E02C53
:10305000ECD1023301339E42EBDA0020F0BD0200D6
:1030600008325519002BDBD0013B5B00C0180389E7
:10307000D1E70133DAE7C046FFFFFF7F80880A30DF
:1030800080087047063070478088704783888B427D
:1030900002D30630401870470020FCE780880A30D1
:1030A000800870470630704780887047F0B5848884
:1030B000851D0020002C16D000231F260F2702E0BC
:1030C00001339C420FDDEA5C013051B20029F7DA8E
:1030D0001100B143C02907D0BA43E02AF0D102332E
:1030E00001339C42EFDCF0BD0133E9E7F0B5851D0B
:1030F00086880F20002200231F27844602E0013328
:103100009E4213DBE8180132047891420FDB60B273
:103110000028F4DA2000B843C02809D06046844370
:10312000E02CECD1023301339E42EBDA0020F0BDFB
:103130000133E4E703207047C38880681B095B0004
:10314000C018704780887047C088704710B500224B
:10315000FFF74EFF10BDC0460300C0889B880009E2
:1031600002304000C0180830800870470300C08853
:1031700008330009400018187047C04610B50122F6
:10318000FFF736FF10BDC04640680B30800870471F
:10319000F0B54646D6464F46C0B5C488150024094A
:1031A000060064008288002D4BD0050008352C19DC
:1031B000A3189846002959D0200008F0FFFB0023EF
:1031C00042461370F7883F09002F30D07F00BA467F
:1031D000A1461F26AA4443461F1B1CD40F20227859
:1031E00010210023844607E001339F4213DBE018DF
:1031F00001390278002921D050B20028F4DA1000F9
:10320000B043C02818D060468243E02AECD1023394
:1032100001339F42EBDADC2080000AF029FC002415
:1032200000234A469B1A2B800235AA45D3D11CBCE9
:1032300090469946A246F0BD0133D5E7040003004D
:10324000EFE783689C466444A3189846002904D19C
:103250001970C788B5683F09B6E7200008F0AEFBD3
:1032600043461D70F788B5683F09ADE71970C788F8
:103270003F09A9E710B58068002801D001F0A0FF40
:1032800010BDC04610B50400406801F0BFFFA06843
:1032900001F0BCFF10BDC046F0B55746DE464E46B5
:1032A0004546E0B5414C83B0A188824600295CD1F7
:1032B0005246200002F054FE00233D4E99469846A7
:1032C0000EE0200002F060FE03680500B34261D00A
:1032D0009B6A98472B6880445B6A28009847814422
:1032E000A388002BEDD143461E094B467600581C9F
:1032F000801902F0EBFB8446A18801906644002906
:1033000038D15246200002F02BFE294B9B4613E099
:10331000200002F039FE036805005B452FD05B6A90
:1033200098472B6807001B6A280098473A0001005D
:10333000300008F043FBF619A388002BE8D1524671
:103340001C4B0021136053464A469A804246DA805D
:10335000019A50469A600022FFF71AFF03B03CBC66
:1033600090469946A246AB46F0BD13480AF080FB52
:10337000A1889DE710480AF07BFBA188C1E7A188DE
:103380008268200002F0ECFD6A68A188200002F04B
:10339000E7FDD1E7A1888268200002F0E1FD6A68BC
:1033A000A188200002F0DCFD9AE7C046100300204F
:1033B000A4950200EC9502007103000010B5040012
:1033C000FFF76AFFE08810BD10B50400FFF764FF47
:1033D000A08810BD10B50400FFF75EFFE088A36869
:1033E00000094000181810BD70B50D000400FFF76B
:1033F00053FF290000222000FFF7FAFD70BDC046F0
:103400007047C0460320704703207047C08870474C
:103410007047C046808870477047C04680887047B4
:103420007047C04600280ED043688B4201D0002B65
:1034300006D1531C07D08368934204D0002B02D0DE
:1034400000680028F0D17047084B1B68002B0BD098
:103450005A68904201D0002AF7D14A1C04D09A68D9
:10346000914201D0002AF0D1180070470C030020CF
:10347000F0B5C646134F00B53B6804000E009046F9
:10348000002B03D10DE01B68002B0AD05A68A24222
:10349000F9D19A68B242F6D14246DA6004BC90464D
:1034A000F0BD102002F024FB3B680500036043469A
:1034B00044608660C36001210C3002F0D7FB3D60A0
:1034C000ECE7C0460C030020F0B5C646060000B588
:1034D0000C1E02DA25F083FB0400002C1DD0A7B2DD
:1034E000002E1FD0330031191A787F2A21D80133DA
:1034F0009942F9D12E4B9846E01D02F029FA051E9B
:1035000001D043460360AF80A81D2200310008F0BF
:1035100055FA00232C19A37100E0264D280004BCA5
:103520009046F0BDE01D02F013FA051E3BD1B780B6
:10353000EFE7132C02DC204B9846DDE70F2200203A
:1035400000231F25944602E001339C4210DDF25C0B
:10355000013051B20029F7DA1100A943C02920D067
:1035600061468A43E02AEFD1023301339C42EEDC0C
:1035700083B298460F23C217134018180011400059
:103580000934001902F0E4F9051E01D00B4B036069
:103590004346AF80EB80012231002800FFF7F8FDA1
:1035A000BCE70133D0E7024B87800360B1E7C04638
:1035B0004C960200749702001C9602007C96020052
:1035C000F8B505000C1E02DA25F009FB0400002CFA
:1035D00002D1104C2000F8BD220029000020FFF786
:1035E000B5FB060084420FD002F082FA07002200E9
:1035F0002900FFF7ABFB31003800FFF765FF04003F
:10360000380002F089F9E5E721002800FFF75CFFA8
:103610000400DFE774970200F8B5DE4657464E46D1
:103620004546E0B5036804001B6A0F00984723680D
:1036300080465B6A20009847061E48D0254B002430
:1036400000259B46434618190378ED2B0DD0002F1B
:1036500000D07B5501350134B442F3D328003CBC83
:1036600090469946A246AB46F8BD621D9246B242CC
:10367000EDD2FFF797FC8146E01C4044FFF792FC37
:10368000154B4B445B45E6D8144A82185A45E2D89C
:10369000002F19D0902292019446102160449B0281
:1036A0001B1880243F209A1449420A43191364428C
:1036B00001407A5521437A19517099110140034014
:1036C000214323439170D37004355446C3E700204F
:1036D000C5E7C046FF0300000028FFFF0024FFFFEE
:1036E00070B506000D1E12DD0800083002F030F93A
:1036F000041E01D0094B03602000656008302A00D9
:10370000002E06D0310008F059F9200070BD044C9D
:10371000FBE7002109F07EFBF7E7C046E8960200D0
:1037200068970200014B18607047C046B80000203F
:10373000010043011B189B011B189B001B18D8029A
:10374000C31A5B005B1AD800C01A044AC300181AD7
:10375000400013684018584010607047B8000020BF
:103760000F4BF0B59C46050001241F682A0000207D
:10377000BE09FB0F73407B403E0979087340BF08C8
:103780007B404B40DB070B431F00230040003B40C6
:1037900018435208ECD18542E8D363461F60F0BD60
:1037A000B8000020004870477497020070B5030409
:1037B00082B01B0C7F2B22DD3F2580242A0064422F
:1037C0001A4011489911224349B2D2B283420EDD08
:1037D000202629400C4303211B13764201A83343C2
:1037E000037044708270FFF76FFE02B070BD40231B
:1037F0005B4201A81943017042700221F3E701A85E
:1038000003700121EFE7C046FF070000F0B5D64680
:103810004F4646460400C0B50D00002800D175E0B3
:10382000474B002949D00F00984240D027009D42C5
:103830003DD02368434EB34200D171E05B6A200063
:1038400098472B6880465B6A2800984706004644E4
:103850008146322E67D8236820001B6A98472B6860
:1038600082461B6A28009847310005000020FFF7B8
:103870002BFE036807001B6A984742465146040026
:1038800008F09CF843464A46E018290008F096F8EC
:10389000002E0CD023787F2B3DD8631C341904E014
:1038A00000229A560133002A35DBA342F8D13800B2
:1038B0001CBC90469946A246F0BD98422ED00368A3
:1038C000204E214DB342B9D1A0680368B3422AD03B
:1038D0005B6A98472B6807005B6A28009847C01905
:1038E000322820D80C2002F033F8071E00D00660E2
:1038F000380002F0D3F9636829007B60A068FFF705
:1039000085FFB860380002F0DBF9D0E70E4C0029E3
:1039100013D00B4B8AE70D4B3B60C8E70A4FC6E755
:103920002B68B342D0D10C2002F012F8071E01D050
:10393000044B03607C60BD60B9E72500044B7DE764
:1039400074970200A4950200C89702001C9602001A
:103950004C960200F8B505000C00884225D003689B
:103960005B6A9847236807005B6A200098472B68CA
:1039700006001B6A28009847236805001B6A200080
:103980009847BE420BD82C00411B2378085D834228
:1039900007D083428041012398430130F8BD3E00A7
:1039A000F1E70134631BB342EFD90020F6E7C046CC
:1039B00010B503689B6A984710BDC046F0B54646EF
:1039C000DE4657468846C0B57F22060082B037786B
:1039D0003B00093B042B5DD913003B40202B59D001
:1039E0002B2F01D1777801362D2F00D175E00023E0
:1039F000404C00930194002F00D178E00022002376
:103A000093460024002521E000223B4B20002900A2
:103A10001CF0D0FE04000D0050461DF0D7FC220023
:103A20002B001BF0A1FF5A4604000D000123002AC1
:103A300008D000980199304B00221CF0B1FA5B4687
:103A40000090019101363778002F11D03022524278
:103A50009246BA445246092AD6D95A46002A1BD160
:103A60002E2F19D10122013637789346002FEDD140
:103A70002200009801992B001CF09CFE04000D0010
:103A800043461E602000290002B01CBC90469A46A6
:103A9000A346F0BD01369AE7002B25D00098019986
:103AA0002B0022001CF086FE202304000D009F4303
:103AB000452FE5D10A224146701C24F0D5FF0E495E
:103AC000020000201AF0B0FE02000B0020002900C6
:103AD0001CF070FE04000D00D4E70023074C77783B
:103AE00000930194013686E70024054DCAE70024BF
:103AF0000025BDE70000F03F000024400000F0BFBB
:103B00000000F87FF8B505000C00161E25DD0368DF
:103B10009B6A9847002C03DA0419E343DB171C4027
:103B2000001BB04211DD2B682100DB6A280098479A
:103B30002B68A1190700DB6A28009847041E08D0EB
:103B4000E11B3800FFF7C0FCF8BD002805DD0600CA
:103B5000E9E7034809F08CFFF2E70248F4E7C046C2
:103B60007203000074970200F8B54746CE4606007F
:103B700080B514000F0000284CD000294AD00368FB
:103B80001B6A9847E14380463368C9172140DB6AC6
:103B9000300098474346C51A336804005B6A30001A
:103BA00098473B68451B5B6A380098470600002C25
:103BB00030D085422ED33B6838001B6A9847814637
:103BC000077803E0013D0134B54223D32378BB429B
:103BD000F8D132004946200024F09BFF0028F1D1A3
:103BE0004346E41A002C17DD00231F250F2602E0B0
:103BF00001339C4210DD4246D25C013051B20029B3
:103C0000F6DA1100A943C0290AD0B243E02AEFD165
:103C10000233EDE7012040420CBC90469946F8BDC6
:103C20000133E5E710B5FFF79FFF0130431E9841D0
:103C300010BDC046012358407047C04670B50A0009
:103C400005000C1E14D10120002D10D02A002300E5
:103C5000280021001DF068FB002849D10C3001F03C
:103C600077FE002801D0234B03604560846070BD5F
:103C70004B0021495B0D59181D2919D8142920DD45
:103C80001E488446280063449840031EDED18020ED
:103C9000E40200061F335B1A2043D8403423591A2C
:103CA000CD402843002A1EDB012340001843DEE7F5
:103CB0001E29CBD10028C9D1114B9C42C6D1114835
:103CC000D5E70028C2D110488446200063449840BC
:103CD000031EBBD18020E40200061F332043591A83
:103CE000C840002AE0DA0123404240001843BEE702
:103CF0000E20BCE71897020001FCFFFFEDFBFFFF61
:103D00000000D0C1010000800DFCFFFF70B503680A
:103D100082B01B6A984701A9FFF750FE04000D000E
:103D200000220023200029001AF0A8FC002827D137
:103D300001226E0076085242144B200031001DF023
:103D4000F3FA00281AD10122104B52422000310010
:103D50001AF0AEFC002811D1802300225B03200062
:103D600031001DF0E1FA002808D1802300225B0316
:103D7000200031001AF088FC002801D00024044DF6
:103D800020002900FFF75AFF02B070BDFFFFEF7F50
:103D90000000F87F10B51DF019FBFFF74FFF10BDB5
:103DA00070B503680400DB6A9847051E13D0FFF75F
:103DB000F9F8002811D1236820001B6A984723686E
:103DC00006005B6A200098473618B54203D00023EE
:103DD0000120184370BD0E20FCE743005A109042AA
:103DE000F6D0FFF7D7FFF5E710B50E23002802D075
:103DF000FFF7D6FF0300180010BDC04610B500281D
:103E00000AD0FFF7CDFF04000E2805D0C30705D563
:103E10006010FFF7CBFC00E0024810BD024809F03B
:103E200027FEF5E7749702007103000010B51DF03E
:103E300039FBFFF703FF10BD430010B55A10904245
:103E400002D0FFF7A7FF10BD01201843FBE7C046D3
:103E5000064B10B5984203D801234000184310BD0B
:103E60001DF0EEFAFFF7EAFEF9E7C046FFFFFF3F5D
:103E7000431E98414342382018400A307047C046DC
:103E8000F8B54E464546DE4657460023E0B51600D7
:103E9000002205000C001AF0F7FB002806D02D23A5
:103EA000337080231B069C460136644400220023A5
:103EB000280021001AF0E2FB002809D030233370DB
:103EC000002373703CBC90469946A246AB46F8BDB1
:103ED000280021001EF0A4FF1DF042FA724A0700DC
:103EE000724B280021001AF0CFFB00285DD1704AE8
:103EF000704B280021001AF0DBFB002855D17B1CF9
:103F00009B460E2F00DCC4E00E235B429946B94469
:103F10004A46002068491AF087FC02000B0028007E
:103F200021001CF03DF80022644B1BF01DFD1AF02F
:103F3000F7FC0B000F2149428A4610318C46594646
:103F40000200BA4400295BDD2E215D4F5D4D6837CC
:103F500001205D4C88469D421BD89D425FD0302198
:103F6000121BAB4101319D4202D8F9D19442F7D9DD
:103F7000CCB234701400711C1C4310D183455EDD3B
:103F80000F285CD03C687D680130083F0E009D42E0
:103F9000E3D9302434701400711C1C43EED08345E7
:103FA000EED14446B11C7470EAE7002F3BDB3A00C7
:103FB000002041491AF038FC02000B0028002100C3
:103FC0001BF0EEFF0C0001218B4600210500894605
:103FD0003E4A3F4B280021001CF0ECFB0022374BEF
:103FE0001BF0C2FC1AF09CFC0B00012149428A46DE
:103FF0000021BC464F468946594602000029A3DCF1
:1040000030212E2031707070B11CFE43002E3ED046
:104010008E190230087001318E42FBD194E7944230
:104020009DD93024B6E77A42002023491AF0FCFBE0
:1040300002000B00280021001CF0BCFBC2E74B462D
:10404000002B0FD0524600233020541CC85401339B
:10405000E21A002AFADC5346DB435246DB171340D0
:104060000133C9186346012B0CD065230B706346DE
:10407000002B0ADD2B228B1C4A70190060460DF0C4
:1040800003FC1FE700230B701CE74B1CF5E70E0039
:104090005AE70E220020D21B07491AF0C5FBB94689
:1040A00002000B00012795E78DEDB5A0F7C6B03EE5
:1040B00050EFE2D6E41A4B44000024400000E03FF9
:1040C00010920200F35A000000407A100000901E87
:1040D000C4BCD642012070B54042FFF741FB04004A
:1040E0000D48FFF73DFB060020001DF0A9F9002256
:1040F0000A4B1CF05FFB040030000D001DF0A0F91E
:10410000074A084B1BF04CFF02000B00200029005F
:104110001BF02AFC70BDC046FFFFFF000000F03D11
:104120000000E0DFFFFF6F4310B5FFF7D3FFFFF79D
:1041300085FD10BD4843704710B51AF0A3F910BDB6
:1041400010B50C2001F004FC041E01D002F026F88A
:10415000200010BD0089704710B5043001F08EFFBB
:1041600010BDC04610B50A000430818801F06CFF14
:1041700010BDC04610B5043001F08EFF10BDC04622
:1041800003894268994202D289008858704700200A
:10419000FCE7C04610B5043001F056FF10BDC04624
:1041A00010B5043001F088FF10BDC04610B50430D2
:1041B00001F0A6FF10BDC046024B1B68588CC00022
:1041C0007047C046500300207047C0461E4B70B574
:1041D0001B6804000D00002B16D0586A002818D068
:1041E00003689C422ED0002B13D00300002108331B
:1041F00002E00833002A0CD01A680231A242F8D13A
:1042000001318900405870BD104B114A1968914224
:1042100016D003F0D9FD002810D003689C4211D0BD
:10422000002B0BD003000021083302E00833002AE2
:1042300004D01A680231A242F8D1E1E72800E2E78F
:104240005B68CAE70421DDE750030020608C0200B0
:1042500010420000406870474160704710B5082068
:1042600001F076FB041E01D001F0A0FF200010BD7C
:1042700070B505000C00160000290EDB83889942FA
:104280000BDAA4002C19E368002B03D00B2105489E
:1042900001F0ECFF2800E66070BD0A21014801F042
:1042A000E5FFEEE78603000010B509F0E1FB10BD65
:1042B000002805D0034BC31A5A1E93415B42184095
:1042C0007047C04674970200431E98417047C0462D
:1042D00010B5142001F03CFB041E01D001F06EFF6C
:1042E000200010BD10B5040001F072FF002806DBAD
:1042F000238AE268984202D28000805810BD0020D4
:10430000FCE7C046F0B5C646204B00B51B68070069
:10431000DB6A1A1D1C689B689046651E984220D374
:10432000AB009B5898421CD8002D15DD6410A300EB
:104330009B58984211D0012209E0621CAA420BDC72
:10434000414654196410A3005B589F4205D09F4218
:10435000F3D8651EAA42F3DD0024200004BC904679
:10436000F0BD002DF8DD012602E0651EB542F3DB4D
:10437000424674196410A30098583900FFF7EAFA0E
:104380000028EAD0F1DA661CF0E7C04650030020AE
:10439000044B10B51B680131DB6A8900C958FFF76F
:1043A000A1FF10BD50030020F8B504000D00170058
:1043B000260001F00DFF0C36002805DB01003A0055
:1043C000300001F041FEF8BD2189201D2A0001F0D6
:1043D0003BFE218A3A00300001F036FEF3E7C0468A
:1043E000044B10B51B680131DB6A8900C958FFF71F
:1043F000DBFF10BD50030020014B18687047C0461A
:104400004C0300207047C04610B583070BD100282D
:104410001CD00122036804249343DA78F92A00D1DE
:104420009C78200010BD002810D0C3070CD40E28A3
:104430000AD042280CD00A280AD004240628F0D03A
:10444000044809F015FBECE70224EAE70024E8E75A
:104450000124E6E72103000070B504000E2819D0FE
:10446000002817D083070CD019E0032812D12000B0
:10447000FFF74CFC04000E280CD0002C0AD02C4274
:104480000DD12000FFF7C0FF05000228EDD16268C2
:10449000A36801E00022064B1000190070BD200047
:1044A00000F008F81CF092FF02000B00F4E7C04691
:1044B0000000F87F70B5C30748D4830703D5801187
:1044C000431E984170BD00283ED0FFF7C5FF012272
:1044D00005004C0064080E005242224B28002100C7
:1044E0001CF022FF00282FD101221E4B524228002F
:1044F00021001AF0DDF8002826D1802300225B037A
:10450000280021001CF010FF00281DD1802300226C
:104510005B03280021001AF0B7F8002814D1280006
:1045200031001EF05BF800220F4B1EF085FB0022CD
:10453000002304000D001AF0A7F8002808D120007D
:1045400029001AF0CFF9BDE70020BBE74010B9E71A
:10455000200029000022044B1BF006FA04000D0085
:10456000EDE7C046FFFFEF7F0000F04110B5FFF719
:10457000A1FF10BD70B50D00FFF79CFF04002800DF
:10458000FFF798FF1F2318408440630020005A1053
:10459000944202D0FFF7FEFB70BD01201843FBE7F9
:1045A00070B50D00FFF786FF04002800FFF782FFBB
:1045B0001F2318400441630020005A10944202D087
:1045C000FFF7E8FB70BD01201843FBE770B50D0055
:1045D000FFF770FF04002800FFF76CFF6040430006
:1045E0005A10904202D0FFF7D5FB70BD012018434E
:1045F000FBE7C04670B50D00FFF75CFF0400280024
:10460000FFF758FF204343005A10904202D0FFF7B3
:10461000C1FB70BD01201843FBE7C04610B5FFF792
:1046200049FFC04343005A10904202D0FFF7B2FB4B
:1046300010BD01201843FBE770B50D00FFF73AFFEE
:1046400004002800FFF736FF204043005A10904234
:1046500002D0FFF79FFB70BD01201843FBE7C04667
:1046600070B50D00FFF726FF04002800FFF722FFBA
:104670001F231840C440064B20009C4203D801234E
:104680006000184370BD1CF0DBFEFFF7D7FAF9E7B6
:10469000FFFFFF3F10B50E280DD000280BD0830779
:1046A00004D0FFF707FF1BF0D5F810BDFFF7D4FECD
:1046B0001CF04AFFF9E70148F7E7C0460000C07F59
:1046C00070B50E00FFF7C8FE040030000D00FFF7C4
:1046D000C3FE02000B00200029001BF045F9FFF784
:1046E000ADFA70BD70B50E00FFF7B6FE04003000E5
:1046F0000D00FFF7B1FE02000B00200029001CF0A6
:10470000CBFAFFF79BFA70BD012213000B40D0B526
:104710000C00184203D0C3130133012B0FD9FFF74C
:104720009BFE060020000F00FFF796FE02000B0024
:10473000300039001CF03EF8FFF780FAD0BDCB13F3
:104740000133012BEBD84C1040106043430059104B
:10475000884202D113431800F0E7FFF71BFBEDE797
:10476000D0B50C0003290ED0FFF776FE060020001E
:104770000F00FFF771FE02000B00300039001BF044
:104780000FFCFFF75BFAD0BDF8B501250C002842FD
:1047900003D0294201D04B100FD1FFF75DFE060078
:1047A00020000F00FFF758FE02000B003000390018
:1047B0001EF042FAFFF742FAF8BDFFF77BFE060053
:1047C0002000FFF777FE0100300019F041FF48009C
:1047D0004210914203D00800FFF7DCFAECE72843CF
:1047E000EAE7C04670B50E00FFF736FE0400300061
:1047F0000D00FFF731FE02000B00200029001EF023
:104800009BFBFFF71BFA70BD0123F0B50E0083B0D0
:10481000184210D019420ED040104E1086423EDA97
:10482000801BFEF79DFF301843005A1090423CD188
:104830000120184324E0FFF70FFE040030000D00B4
:10484000FFF70AFE06000F0002000B0020002900FF
:1048500019F02EFF002815D0FFF73CFC3200009025
:1048600001913B00200029001CF016FA009A019BE0
:104870001BF0A0FF32003B001BF076F8FFF7DEF9DB
:1048800003B0F0BD32003B002000290019F0F6FE15
:1048900000280DD020002900FFF7D0F9F0E786426C
:1048A0000DD1760030001843EAE7FFF773FAE7E727
:1048B00032003B0026002F0014001D00CCE733001F
:1048C00006001800ACE7C04610B5FFF7C5FD1EF0A6
:1048D0001FFAFFF7B3F910BD10B5FFF7BDFD1EF0CD
:1048E0009FFAFFF7ABF910BD10B5FFF7B5FD1DF04E
:1048F000C7FAFFF7A3F910BD10B5FFF7ADFD1DF026
:10490000E1F9FFF79BF910BD10B5FFF7A5FD1DF00C
:1049100065FEFFF793F910BD10B5FFF79DFD00226E
:10492000034B1BF021F81DF0ABFAFFF787F910BD20
:104930000000E03FF8B504000D000E2807D00E2956
:1049400005D0884226D00B000340DB0701D50020AC
:10495000F8BDFFF759FD06002800FFF755FD864218
:10496000F5D123002B439B07F1D1032E14D0022E47
:10497000EDD12000FFF770FD060028000F00FFF7C3
:104980006BFD0B0002003900300019F077FE431E6A
:104990009841DDE70120DBE729002000FEF7DAFF80
:1049A00043425841C0B2D3E710B5FFF7C3FF431EDF
:1049B00098414342382018400A3010BD10B5FFF727
:1049C000B9FF434258414342382018400A3010BDD5
:1049D000F8B504000D000E2815D00E2913D00628B6
:1049E00013D042283ED00A281AD00300062900D14D
:1049F0007CE0422D0FD00A2D36D001209D4203D0FD
:104A0000284004420FD00020F8BD01200629FBD029
:104A10000023422DEFD103220120934203D1F3E77B
:104A20000123062DE5D12000FFF7EEFC060028004B
:104A3000FFF7EAFC0300032E21D003282DD0012E1E
:104A400014D0012820D09E42DDD122002A439207B3
:104A5000D9D1032B42D0022B26D02C1B60426041BF
:104A6000C0B2D1E70323DCE70122D5E7062C2ED024
:104A70000226422C30D00A2CE3D10124E1E702289F
:104A800012D00328DDD1E0E70223062D1DD0422DF0
:104A900020D00A2DD7D10125D5E7022E04D0012E32
:104AA000B1D1062CE4D1AEE72000FFF7D5FC06001B
:104AB00028000F00FFF7D0FC0B0002003900300087
:104AC00019F0DCFD431E98419EE70025BBE7022656
:104AD0000024B6E70325B6E70324B2E72900200047
:104AE000FEF738FF43425841C0B28DE7002293E7FA
:104AF00010B5FFF76DFF10BD10B5FFF769FF431E3E
:104B000098414342382018400A3010BD10B5FFF7D5
:104B10005FFF434258414342382018400A3010BDDD
:104B2000F8B506890F004568002E0DD0002403E07B
:104B300001340435A64207D939002868FFF748FF39
:104B40000028F5D0200001E001204042F8BDC04619
:104B500010B500220400FFF7E3FF0023002805DB67
:104B600004340100200001F0A7FA0123180010BD51
:104B7000F8B5040083071ED100281ED0FFF744FCBF
:104B8000032828D00125022818D12000FFF764FC53
:104B900002000B0006000F001CF0C6FB00280CD121
:104BA000002300223000390019F068FD43425841CB
:104BB0004042054002E00A2802D100252800F8BD45
:104BC0000028FAD00E28F8D00628F6D0013C25009F
:104BD0006C1EA541F2E7024B9C42EED00125EDE7A9
:104BE0007497020010B50300422806D000200A2B5B
:104BF00002D01800FFF7BCFF10BD0120FCE7C04643
:104C0000F8B504000E000E2841D00E293FD0FFF762
:104C1000FBFB05003000FFF7F7FB032D30D0002031
:104C2000B4422CD02000FFF717FC040030000D0028
:104C3000FFF712FC220006000F002B0020002900C5
:104C40001CF072FB002822D132003B0030003900FA
:104C50001CF06AFB00281AD132003B00200029001A
:104C600019F012FD002815D13B0032002000290068
:104C700019F01EFD431E9841434201201840F8BD23
:104C80000328CCD131002000FEF764FEF7E70220B4
:104C90004042F4E701204042F1E7C0460B000340E8
:104CA00010B5DB0706D50123884201DAD8B210BD62
:104CB0000023FBE7FFF7A4FF831C01D0C00FF6E73A
:104CC0000020F4E70B00034010B5DB0703D5884252
:104CD00007DD0A2010BDFFF793FF831CF9D00028E1
:104CE000F7DC4220F6E7C0460B00034010B5DB07B7
:104CF00003D5884207DB0A2010BDFFF781FF831C24
:104D0000F9D00028F7DA4220F6E7C0460B0003404E
:104D100010B5DB0703D5884205DB422010BDFFF745
:104D20006FFF0028F9DA0A20F8E7C0460B000340BD
:104D300010B5DB0703D5884205DD422010BDFFF723
:104D40005FFF0028F9DC0A20F8E7C04670B590B094
:104D50000400FFF759FB032835D002280DD00528A1
:104D600040D0002C42D00A2C3AD00E2C3CD0422C01
:104D700051D0062C51D02B4826E0E30726D40E2C28
:104D800032D02000FFF768FB01224C0064080E00BF
:104D90005242254B210005001CF0C6FA002827D1FD
:104DA0000122214B52422800210019F077FC0028F3
:104DB0001ED1002200232800310019F065FC0028D4
:104DC0002DD11A4800E0200010B070BD6946601077
:104DD0000CF05AFD012168464942FEF775FBF3E7E6
:104DE0001348F1E71348EFE71348EDE71348EBE703
:104DF0002A003300280031001CF096FA0028F3D175
:104E0000280031006A46FFF73BF801216846494215
:104E1000FEF75AFBD8E70A48D6E70A48D4E70A481B
:104E2000D2E7C046EC970200FFFFEF7F9C9702009D
:104E3000E0970200FC970200AC970200589702002E
:104E4000D4970200C8970200B897020010B5FFF788
:104E5000DBFA05280FD80A4B80001B589F460948EB
:104E600010BD0948FCE70948FAE70948F8E709488E
:104E7000F6E70948F4E7094808F0FAFD0020EFE7F3
:104E8000309502008C9702004897020010980200AB
:104E900030980200209802007C9702002203000054
:104EA00070B50400FFF7B0FA042813D1002C0CD021
:104EB000A3070AD1216801230A009A4353691348C2
:104EC00083421DD02000984770BD210010480CF08F
:104ED000F7FEF9E72000FFF739FF05002000FFF794
:104EE000B5FF03681B6A98472B6806001B6A2800F9
:104EF000984722000300310006480CF0E1FEE3E78A
:104F00001388054812890CF0DBFEDDE7A14E000096
:104F1000AC960200D8960200B896020010B50A00BE
:104F20000400010010480CF0CBFE002C0BD0A307AE
:104F300005D1012321689943CB78F92B0DD0062C9C
:104F400001D10A4806E02000FFF75EFAF5239B0036
:104F50009C46604408F08CFD10BD0B898A7804489B
:104F60000CF0AEFEEBE7C04648950200DD03000002
:104F70006895020010B5010003480CF0A1FEE42082
:104F8000800008F075FD10BDD495020010B501F049
:104F90001DFC0400102000F0ABFD236903602061BC
:104FA00010BDC04670B501F011FC04690500002C6D
:104FB00005D0236820002B6100F0AEFC70BD0248D4
:104FC00008F056FDF5E7C04653030000F0B5C646AD
:104FD00000B584B0804601F0F9FB04690600002C9E
:104FE00017D06D462368220033612B0083CA83C328
:104FF000126820001A6000F08FFC434673610A4B70
:1050000031001B6828009B6B984704B004BC904695
:10501000F0BD06480CF054FE4046FFF741FF04483F
:1050200008F026FDDDE7C046500300208895020009
:10503000E703000010B501F0C9FB12234469436186
:10504000122C01D0200010BD014808F011FDF9E735
:105050005303000010B501F0B9FB4369122B03D0D4
:10506000FFF7E8FFFFF7B2FF10BDC046002912D0DE
:1050700002004118094803041B185B001B18DB00E1
:105080001B18DB001B185B001818137801325840FE
:105090008A42F0D170470148FCE7C046C59D1C819B
:1050A000032370B5046805009C4312D0A30F14D1EC
:1050B0002800E36998470500002D05D080231B02D6
:1050C0009D4204D9002C02DB054808F0D1FC2800E1
:1050D00070BD044808F0CCFCEAE72501AD09EBE718
:1050E0004903000051030000124970B58A880B681B
:1050F000551E0FD3AC00E458A04217D0023A9200DC
:105100009B182A0004E01C00043B5E68864206D01F
:10511000013AF8D2D220800008F0AAFC70BD954276
:1051200004D0080000F030FF2060F7E7080000F02E
:105130002BFFF3E72403002010B518210148FEF7E8
:10514000CFFA10BD2C030020012203689343188876
:105150008010704710B5002815D0C468002C13D0FB
:105160002368043C4360A3688360E3682268C360EB
:10517000530F032B03D0114808F07AFC22688023D8
:105180001B061343236010BD041F2268530F032B1B
:1051900007D180231B0613432360002001F020FB6E
:1051A000F1E7064808F064FC802322681B061343DD
:1051B0002360002001F014FBE5E7C046490300002E
:1051C00010B5041F2368DB0715D40D4B1B68002B9B
:1051D0000DD01A0008329442F8D359688C466244C4
:1051E0009442F3D2012322681343236010BD054883
:1051F00008F03EFCF6E7044808F03AFCE5E7C04654
:10520000180300204A0300004F03000010B50400FB
:1052100083070AD1002808D0030F06D00168114B7C
:10522000194202D1CB78F92B00D010BD0E4B1B6870
:10523000002B11D01A0008329442F8D358688446E3
:1052400062449442F3D201230848194321608188C3
:10525000220000F085FEE8E7054808F009FC216817
:10526000F1E7C046030000401803002010030020AF
:105270004A030000F0B54F46D64646468146C0B5C3
:105280000F1E3FD0244B06009A46244B002598461B
:1052900003E001350436AF4234D03468A307F8D1B7
:1052A000002CF6D0230FF4D021681D4B1942F0D109
:1052B000CB78F92BEDD153461B68002B27D01A0071
:1052C00008329442F8D35868844662449442F3D238
:1052D000012319434346216099882200404600F08B
:1052E0003FFE43469B88642BD3D90C200DF042FA35
:1052F0000C4A0135136810600360AB004B447D1B02
:10530000436085601CBC90469946A246F0BD0648A5
:1053100008F0AEFB2168DBE7180300201003002033
:10532000030000401C0300204A03000070B504681D
:105330000500002C06D02000FFF742FFA9882000BE
:10534000FFF798FF70BDC046F0B5C646040000B533
:1053500083070AD1002808D0030F06D00168234B29
:10536000194202D1CB78F92B02D004BC9046F0BD93
:105370001F4B1B68002B34D01A0008329442F8D31C
:105380005868844662449442F3D201230B4323605D
:10539000032399438B69002B01D0200098470323F6
:1053A0009846144C144DA388002B0FD12868002870
:1053B000DBD00368876846682B600DF005FA39007A
:1053C0003000FFF757FFA388002BEFD0200000F03C
:1053D000DBFD4246036893439B69002BE3D098476B
:1053E000E1E7064808F044FB2168CEE703000040EF
:1053F00018030020100300201C0300204A030000B3
:10540000F0B5DE4657464E464546E0B59B4B85B067
:105410001B7803909A0705D5D220800008F028FB5E
:10542000964B1B78022202261343944A1370944B26
:105430001C689D88039B1E4007D092480CF040FCDE
:105440002A00210090480CF03BFC002D0CD00127D5
:10545000AD0065192068384201D0B84300680434B3
:10546000FFF772FFA542F5D1039801F0BFF9874C11
:105470002368002B14D0864B1B685D8D00F010FF55
:10548000AB00471B2568ED18002E00D0E8E0002F88
:1054900006D0002401CD0134FFF756FFA742F9D111
:1054A0007C4B1D687C4B1E78002E06D0002401CD5D
:1054B0000134FFF749FFA642F9D80023774A136069
:1054C000774B774A1B68009301331360754B1B6859
:1054D0009946002B00D1CCE0002301279A469B4639
:1054E000019302934B46029A5B6894469B084D4693
:1054F0009C449E0063460835AE190293B5424AD2D9
:105500002B683B4200D088E01A0F062A00D184E0C5
:10551000AE4200D890E08022D2052C00904600E0F8
:105520002368002B10DB3B4215D11A0F062A12D03C
:105530004246134208D1DB78F92B02D05A4808F0D2
:1055400097FA200000F0F0FC2000FFF7A9FD800092
:105550002418A642E4D88021631B98469B109A0029
:1055600009061143009101999A44994200DA019386
:10557000FF21280007F04EFC009B2B604346042BC4
:1055800053DD00236B605B46002B50D05D60AB4663
:105590002500AE42B4D84B461B689946002BA1D1DA
:1055A0005346424C9900029B20689A00019B9B0045
:1055B000002814D05046470838480568002D0ED002
:1055C00028680601B609B74206D242E02868000101
:1055D00080093618B7423DD36D68002DF6D13048AA
:1055E000C16003614069002814D0884212D8039832
:1055F000C00702D52E480CF063FB02221F4B1B781C
:1056000093431E4A137005B03CBC90469946A2468F
:10561000AB46F0BD22484161E9E7BB432B6028005F
:10562000FFF73EFD80002D18B3E72500B1E71B4BC7
:10563000AB461D602500ACE7019B002B05DA8023FB
:105640001B062B6000230193A3E780231B062B601E
:105650009FE73000C019801B800028182060BEE73B
:105660003A00290013480CF02BFB002F00D010E764
:1056700016E7002300220021B1E7C046040C0020F9
:1056800024030020749802007C9802004C03002040
:105690005003002044030020050C00204803002094
:1056A0002C030020180300204903000020030020E1
:1056B0009498020088980200F0B5C646484E00B59E
:1056C0003368002B09D01B68002B00D174E0022046
:1056D000FFF796FE152008F0CBF90021CF20FEF74A
:1056E00075FD802180464901CE20FEF76FFD050043
:1056F00000200CF0D5FF2A000400010039480CF00E
:10570000DFFA4346651B0027002B3FD128000DF030
:1057100031F82900040008394160876122003248CD
:105720000CF0CEFA63689A0740D1304A51680131D3
:1057300051609168C91891602D49DA1C114080228E
:1057400012060A432B49A2600A689B08E260220005
:1057500008320A60D3183168274A1360002910D034
:10576000A1420ED80A68002A34D0944203D234E011
:10577000A34203D81A001368002BF9D123601460E8
:1057800001E02160346004BC9046F0BD1B4B4246F2
:105790009C466444E40BE30394021C1B002CB5DD1F
:1057A00020000CF0E7FF2D1B0700AFE7D2208000A0
:1057B00008F05EF96368B8E70021CD20FEF706FD2A
:1057C0000F4BC318002B00DC81E70E4B0E4CC118A9
:1057D0006160A3E700230A00D0E713000A00CDE7C9
:1057E00018030020B0980200D09802002C0300207B
:1057F000FCFFFF7F4803002020030020FF7F000004
:10580000FC7BFFFFF47BFFFF0084002010B5002825
:1058100019D00F4B1B68002B16D01A00083290428B
:10582000F8D359688C4662449042F3D2041F226830
:10583000530F032B03D0074808F01AF9226880237E
:105840001B061343236010BD0CF0BEFFFBE7C046F0
:105850001803002049030000F8B5CE46474680B53E
:1058600007292DDD00282BD00323033199430C0099
:10587000071F0020FFF7C4FDE31D98469E08224B3A
:105880001C68002C1CD0032399464B461C4201D1B6
:10589000230F02D11D4808F0EBF82568002D02DB2C
:1058A0001B4808F0E5F83A1B9310072B05DD2D0186
:1058B000AD09AD1BED1A072D08DC6468002CE4D19E
:1058C000002420000CBC90469946F8BDF61860688C
:1058D000B600A61970608021032009068243AD003E
:1058E0000D430A433560226042460A499B000A4044
:1058F0001100C022D20566601143E41802C40020E2
:10590000FFF77EFDDDE7C04648030020510300009D
:105910004B030000FCFFFF9F70B5041F22680500C9
:10592000530F032B03D0054808F0A2F82268802308
:105930001B0613432800236070BDC04649030000C6
:105940000421024A13780B4313707047040C0020A3
:10595000F0B55746DE464E4645468023E0B5C71CA7
:1059600085B00390BF089B02984200DD8EE04D4B4E
:105970005B68DB0565D14C4B02931B781A0762D13B
:1059800001221343029A137000F020FF002803D075
:105990004368002B00D180E0444B00269B46444BDB
:1059A0009A46444B99465B461D68002D51D0002312
:1059B000984602E0A8461D1E4BD0002E03D14B4650
:1059C0001B68AB424ED3AB0701D12B0F02D13A4833
:1059D00008F04EF82C68002C02DB384808F048F834
:1059E0002401A409E41B6B68E4D40AD08022BF0020
:1059F000A1001206EF190A433A60012C01D07B6026
:105A00003B004246002A45D0536000222A60002B0A
:105A10000AD05B68002B07D09A0701D11B0F03D176
:105A2000D420800008F024F80122280002990B7885
:105A300093430B7005B03CBC90469946A246AB46DA
:105A4000F0BD194B02931E4808F012F8029B1B7818
:105A500096E7002E06D0012E09D0152008F008F890
:105A60000136A0E70020FFF7CBFC01369BE7534649
:105A70001B69524600935346D2689B6803991148AC
:105A80000CF01EF90136FFF717FE8CE7162007F021
:105A9000EFFF6CE75A461360B7E70B4807F0E8FFE3
:105AA0007AE7C04600ED00E0040C00204803002027
:105AB0002C03002020030020510300004B030000B2
:105AC00092030000409802004E030000032310B52B
:105AD000C41C9C43201DFFF73BFF044B07341C40B4
:105AE0008023DB051C4310C010BDC046FCFFFFBF78
:105AF00010B5002808D0FFF7E9FF8023021F1168C6
:105B00009B050B43136010BD0020FCE7F8B51F4B4D
:105B100006005B680D00DB0534D100F057FE1C4B1E
:105B20001C4F1D60751BAD10041E3D7015D00C2060
:105B3000FFF7CCFF8023021F11689B050B43136006
:105B400063680360A3684360E3688360E0600023E8
:105B5000A6603B7020006360F8BD1820FFF7B6FF19
:105B60008023021F11689B050B4313600A4B12220E
:105B70001B68426103600023C3600361040000F0FE
:105B80002FFEE4E7054807F073FFC6E700ED00E0ED
:105B900044030020050C00204C0300209203000069
:105BA0000C4B10B55B68DB050ED10B4B1B78002B43
:105BB0000AD100280BD0FFF789FF8023021F11684C
:105BC0009B050B43136001E00CF0D4FD10BD0020D9
:105BD000FCE7C04600ED00E0040C0020F8B504002E
:105BE0000D00204B1B68002B23D01A000832944272
:105BF000F8D359688C4662449442F3D22800FFF7E8
:105C0000CFFF0600002C12D0002E10D0271F3A68BC
:105C1000530F032B1CD1120192099200AA420ED8F5
:105C20002100300005F0CAFE2000FFF7EFFD300034
:105C3000F8BD290020000CF0F5FD0600F7E72A006A
:105C40002100300005F0BAFE2000FFF7DFFDEEE78F
:105C5000054807F00DFF3A68120192099200AA4226
:105C6000DED9ECE7180300204903000070B50029D5
:105C700009D0012908DD4C1E051D0121FFF7F6FFA3
:105C80002800013CF8D270BD0122024302488188FD
:105C900000F066F9F7E7C0462403002010B583073B
:105CA00003D1002801D0030F00D110BD034B020027
:105CB0009988180000F054F9F7E7C0462403002043
:105CC00010B5830703D1002801D0030F00D110BD08
:105CD000FFF70AFAFBE7C04610B54068FFF796FAEF
:105CE00010BDC04610B50430FFF720FB10BDC04604
:105CF00010B581880C30FFF7BDFA10BD10B54068B3
:105D0000FFF784FA10BDC04610B504000430FFF759
:105D10000DFB20000C30FFF709FB10BD012208C865
:105D200010B59343198804398908FFF7A3FA10BD09
:105D30000320704703207047808880000F30800860
:105D40007047C04602207047052070470023034A71
:105D500013605360024A13605360704724030020AD
:105D60001003002010B500F0EFFC10BD10B50028A6
:105D700001DB00F0E1FC10BD7047C046002343602A
:105D800083607047002343608360C3600361704792
:105D900010B5054A0100838812688068821A03489A
:105DA0000BF08EFF10BDC04650030020CC990200BE
:105DB00010B50100426802480BF082FF10BDC046DA
:105DC000E498020010B50100028902480BF078FF48
:105DD00010BDC0467C990200F8B50400C0880D00D3
:105DE000884224D2002831D03F282DDD204B984214
:105DF00035DD01301F4BFF30984236D82E008542EA
:105E000000DA0600B0000CF0B5FC0700E0880028BE
:105E10001ED1321A800092000021381806F0FAFFD5
:105E200020680CF0D1FC2760E680A580F8BDA28830
:105E30009142FAD22368521A9C468800920060442C
:105E4000002106F0E7FFF0E74000D7E70420D5E7A0
:105E500082002168380005F0B1FDE088D9E78300B1
:105E60001818032118F00EFBC8E70348C6E7C04620
:105E7000FF010000FEFF0000FFFF00007047C0466A
:105E80007047C046012370B50A6804009A4313891D
:105E90000D00042B07D01048012210490BF010FF11
:105EA0000E4807F0E5FD002C01D1280070BDE01C74
:105EB0008000FFF74DFD061E01D0094B0360300046
:105EC000AB682204B480B360920B0C30002106F062
:105ED000A1FF3500E9E7C046BC9902008503000038
:105EE000309902000E4B026970B505009A4209D044
:105EF000E2210C48032289000BF0E2FEE220800040
:105F000007F0B6FD2888FFF723FD041E00D00560CA
:105F10002A88201D043A002106F07CFF200070BD75
:105F2000795D0000BC990200012310B502689A4314
:105F30001369984710BDC046012310B502689A4303
:105F40001369984710BDC046012310B502680100CF
:105F50009A43128801480BF0B3FE10BD1499020059
:105F6000084B70B505000C001600994205D88388CF
:105F70008B4203D92B68A400E65070BD0131FFF7B6
:105F80002BFFF7E7FEFF00008388002B09D0013BC1
:105F900002689BB283809B00D318002218681A60A5
:105FA00070470020FCE7C046F8B5C58806000F0022
:105FB000002D29D03F2D0FDD204B9D422BDD6B1C8A
:105FC0001F4AFF33934224D81C1C9BB28B4208D338
:105FD000A4B2A54207D3F8BD6B001C1C9BB28B4238
:105FE000F6D23C1CF4E7A000FFF770FD0500F08836
:105FF00000281BD1221A800092002818002106F0E8
:1060000009FF3560F480E6E70C1C0429E0D2042483
:10601000DEE70C4CDDE7A8004019032118F032FA46
:10602000041C80B2B842D3D23C1CD1E78200316854
:10603000280005F0C3FCF088DCE7C046FF01000043
:10604000FEFF0000FFFF0000C38870B505000C00D4
:1060500016008B4207D8084B994200D970BD013118
:1060600089B2FFF7A1FF2A68A3009E50AB889C422B
:10607000F4D30134AC80F1E7FEFF0000C38870B5B3
:1060800004008DB28B4201D2AB4201D9A58070BD14
:106090002900FFF789FFF9E78388002B09D0013B2E
:1060A00002689BB283809B00D318002218681A6094
:1060B00070470020FCE7C046F8B5828805008A4298
:1060C0001AD903688E0098194F1C0468BA4207D881
:1060D0000021013A92B2AA809200D1502000F8BD6E
:1060E000521A06498C46311D62449200591822F01A
:1060F0001FFDAA882B68EBE70024EFE7FFFFFF3FB7
:10610000F8B51700828804000D008A4218D9511C86
:10611000C38889B28B420FD96B1C9B0020681E1F5D
:10612000521B81199200C01822F002FD23689F5172
:10613000A3880133A380F8BDFFF736FFA288EBE701
:106140003A00FFF781FFF6E770B50500C388828843
:10615000016809480BF0B4FDEB88002B0BD000243C
:10616000064E2A68A300995830000BF0A9FDEB8871
:106170000134A342F5D870BD90990200B499020091
:1061800010B504000289010003480BF099FD201DA1
:10619000FFF7DAFF10BDC046F8980200024B03601B
:1061A0000023436083607047489A0200024B0360FB
:1061B000002343607047C046189A0200034B0360F7
:1061C000002343608360C36003617047E899020065
:1061D000F8B54746CE4680B507890C004668002FC3
:1061E00036D0336899423CD0331D002004E004339C
:1061F0001A1F1268A24225D00130B842F7D3236893
:1062000020005B6A9847236880461B6A20009847F5
:106210000024814635682B6828005B6A98478045D2
:106220000AD12B6828001B6A98474246010048465D
:1062300022F06FFC002809D001340436BC42E9D3B7
:10624000012040420CBC90469946F8BD2000F9E779
:106250000B6808005B6A9847236820001B6A984710
:10626000EEE70020EEE7C0467047C04610B50400D8
:106270000A00010003480BF023FD200007F0F8FBA3
:1062800010BDC046BC990200014B1B6818697047DD
:1062900050030020014B1B68986970475003002091
:1062A000014B1B68188C704750030020014B1B6882
:1062B000D86B7047500300201D4B026870B5060074
:1062C0009A4200D0FEE741681A4D1B4B0A682960CC
:1062D0009A4213D0088C8000FFF70AFC2B68174CF9
:1062E0001A8C00219200206006F094FD23681C6047
:1062F0002C68134B22689A4208D0FEE711481031EF
:106300000BF0DEFC104807F0B3FB70BDB3682269E8
:106310009A42F2D100F0FCFA2B6820001C6B00239B
:1063200040301A001900A04700F002FAEDE7C0461D
:106330001042000050030020718E3B924C0300205D
:10634000708E3B92609902009F03000010B50248D6
:10635000FFF7B2FF10BDC046608C020003000020B2
:10636000002B07D09A0705D101221B689343DA78E6
:10637000F92A00D070471889063843425841C0B204
:10638000F8E7C04670B505000C20FFF7E1FA041EDF
:1063900004D0164B0360002343608360002D08D0B7
:1063A000AB0706D101232A689A431300D278F92A51
:1063B00001D0200070BD0E4A9342FAD12E89002EE2
:1063C000F7D02000FFF76AFC63899E4203D9201DA5
:1063D0003100FFF7E9FD2681B2006968606805F0C9
:1063E000EDFA2000FFF76CFCE3E7C046489A020094
:1063F000E899020070B504000D00002801D0830761
:1064000013D00F4807F034FB29002000FFF7E0FE0F
:10641000051E08DB2900201DFFF74EFE2000290085
:106420000C30FFF749FE422070BD012302689A43F9
:106430001300D278F92AE4D1024A9342E4D0E0E78B
:106440009B030000E899020070B50E00FEF704F807
:10645000040030000D00FDF7FFFF02000B002000DC
:1064600029001CF07DFAFDF7E9FB70BD10B5FDF7C2
:10647000F3FF1CF007F8FDF7E1FB10BD10B5FDF7C9
:10648000EBFF1BF0B7FFFDF7D9FB10BD10B5FDF713
:10649000E3FF1BF0ABFCFDF7D1FB10BD10B5FDF722
:1064A000DBFF1BF07BFAFDF7C9FB10BD10B5FDF754
:1064B000D3FF1CF0F7F9FDF7C1FB10BD10B5FDF7D8
:1064C000CBFF1CF035F9FDF7B9FB10BD10B5FDF79A
:1064D000C3FF1CF05BFFFDF7B1FB10BDF0B5C64676
:1064E00000B5030282B00F001B0E00D01F00FA237C
:1064F0000004040C1B01E618300001F041F9051EF0
:1065000004D0280002B004BC9046F0BDF0233B400C
:10651000102B1ED0202B19D000229046302B02D0F9
:106520000D4807F0A5FA200001F00EF9040018202C
:1065300022F0CFFA434601930F231F40B2B20097D7
:106540000E3B210005000EF0F3FADAE7022398462D
:10655000E9E701239846E6E72303000070B50D0044
:1065600001214942FDF732FE0400431C04D02900FA
:106570002000FFF7B3FF70BD014807F079FAF6E796
:106580008B030000F0B5C64600B50500884617002D
:106590001E0001F0F5F8041E03D0200004BC904654
:1065A000F0BD31004046FFF799FF310080463800CA
:1065B000FFF794FF0600102022F08BFA41460400FA
:1065C000ABB2B288898810F04FF8404600210EF037
:1065D000E1FA300000210EF0DDFA012120000FF079
:1065E000D9FFDAE7012170B5494204000420FDF724
:1065F000EDFD0121050049420520FDF7E7FD2021C1
:106600000600CA20FDF7E2FD002C0AD0012C12D0B2
:10661000022C0BD10300320029000320FFF7B2FF48
:1066200070BD01002800FFF759FFF9E7044807F0A3
:106630001FFA0020F4E701003000FFF74FFFEFE7FB
:106640008D03000010B52021007CFFF747FF10BD2F
:1066500010B51023808800F0C7F910BD036810B58D
:106660009B699847431E9841C0B210BD10B50CF00D
:1066700095F9431E9841C0B210BDC046808870474E
:1066800010B5044B00221B6800211C6B0023A0479F
:1066900010BDC04650030020F0B5CE464746060068
:1066A00080B585B000900191029287B21022360C1D
:1066B00069461248039305F081F931003800FCF770
:1066C000C3FE04003000FDF7B7FB8046002C10D05D
:1066D0000B4B99464B461B6800221D6B414600231D
:1066E000E068A847206832003900FCF79BFE041ED2
:1066F000F0D105B00CBC90469946F0BDD802002000
:106700005003002010B5FFF7DBFA0BF017FF10BDA8
:1067100070B50600054D2B6800221C6B002100237C
:106720003000A04714200BF095FEF4E75003002042
:1067300010B50BF003FF10BD10B50BF08BFE10BDB4
:1067400010B50AF0DDFF10BD10B5041E06D0FFF72E
:10675000A5FA034A210003480BF078FD10BDC0469E
:106760006D2501001167000010B5041E06D0FFF76B
:1067700095FA034A210003480BF068FD10BDC0469E
:10678000056700008166000010B589B280B20BF089
:1067900087FE10BD054B10B51C68FDF70DFD044BC1
:1067A0009C4664442018400A400210BD500300205B
:1067B000FF01000010B50AF0BFFF10BD10B50DF0CD
:1067C000CDFF10BD10B50DF0D9FF10BD034B1B68F8
:1067D000002B01D0186A70470020FCE7B00A0020A7
:1067E000014B1B6818627047B00A0020F0B54E4696
:1067F000DE4657464546E0B53C4B87B099461B6898
:106800000290002B6AD000200BF09EFA8500040055
:1068100028000BF0AFFF03900BF096FA844258D19A
:10682000002C3CDD039B9A460023554401950093C0
:1068300053461F683E6A002E2BD07069FEF784FD18
:106840000223029A043613409B464B461B68346869
:106850009F422ED03868BD680AF084FF4B461B6803
:106860002D1A641975689F4207D0BB68386898462E
:106870000AF078FF4346181A2D185B46002B03D008
:106880001BE001CCFEF760FDA542FAD8B668002EE9
:10689000DBD104239C46019BE2445345C8D10398B5
:1068A0000BF092FF07B03CBC90469946A246AB461F
:1068B000F0BD5B467568002BE6D0009922004B1CAA
:1068C00098462B1B9B100A480BF0FAF9434600939D
:1068D000DAE7CB20800007F0CBF8A1E701200BF02E
:1068E00049FF059005980BF06FFFDBE7B00A002029
:1068F000889A020010B501F0D5F90400302022F08A
:10690000E8F80123002221000DF0A4FF10BDC046CD
:1069100070B5FFF7EFFF01F059FA1E4B1B681C8D95
:10692000002C27D11C480BF051FB1C4C1C4E651C45
:10693000FF3502E00434AC420AD020680028F9D0C8
:1069400003681B68B342F5D004349847AC42F4D1D5
:1069500001F028FB01210D204942FDF737FC00F032
:10696000F3FE002803D0036800211B68984701F05C
:1069700003FA70BD21000B48FEF76EFF21000500F1
:10698000020009480BF09CF9002DCBD1142007F030
:106990006FF8C7E75003002054030020AC05002027
:1069A0007922000000200020789A020010B50848E3
:1069B00011F0A0FB074C20000FF032FB064A0749FC
:1069C000200022F07FF8064B064A1A6010BDC04630
:1069D000D802002054030020B4000020655F0100AD
:1069E00078030020D4A00200F0B557464E46454635
:1069F000DE46E0B58DB004000D0016001F00FCF768
:106A000023FD00280BD0320029002000FCF730FDC8
:106A10000DB03CBC90469946A246AB46F0BDBFB215
:106A20000F2C01D1C02F10D1282022F052F882461D
:106A30001E4BA1B2AAB200970BF010FF1C4B51469F
:106A400018000FF0BBF9002828D1002DDBD101215F
:106A500020004942FCF7F8FC071ED4D0A3B29B46A5
:106A6000124B9946124B984610239A4653463A8940
:106A70005946009302A84B460BF0F0FE02A940468F
:106A80000FF052F902A80BF003FF012238685242BE
:106A90002100FCF7C7FC071EE8D1B4E750460BF015
:106AA000F7FE504622F006F8CFE7C0469966000090
:106AB0005403002000B585B08AB2012381B2684634
:106AC00011F0F6FA05B000BD012110B549420248A7
:106AD000FCF776FD10BDC046949A020010B50FF089
:106AE000EFFB10BD10B503681B6A98470100024810
:106AF0000BF0E6F810BDC0469C9A020010B5036882
:106B00000C001B6A98472200010002480BF0D8F8DD
:106B100010BDC046A49A02000148C000C0087047DA
:106B2000008000200048704716FCFFFF00487047B7
:106B300016FCFFFF0048704716FCFFFF002070475F
:106B40002023C05C012358407047C046004870476E
:106B500016FCFFFF00487047B09A020000487047DB
:106B6000C49A0200F0B54E465746DE464546E0B5AB
:106B70001C002D4B91B0814618688A4616000CF017
:106B8000ADFB002843D05346012B47D01A9F7B1CF6
:106B900000D004340AF0A6FD002C36D05346402B1A
:106BA00000D10023DBB29B4623E0A04653462500DC
:106BB0002B4300936B46581C7B1C0BD004221AA954
:106BC00004F0FCFE01235B421A9345466B46043CED
:106BD000043D581D31002A0004F0F0FE4B464022CF
:106BE00069469868641B761913F0ECFB002C0CD0F6
:106BF0001A9F3C22002101A806F00CF93F2CD4D9A1
:106C00003F225B463F259046D2E70AF05DFD11B07A
:106C10003CBC90469946A246AB46F0BD1A9F3F3316
:106C20009A467B1CB5D1B5E7D80A002000B50649C5
:106C3000837802000868054983B000910C33012174
:106C4000FFF790FF03B000BD80030020200080000C
:106C500030B50500C06983B00830140004F0AEFE02
:106C60000121EA6949420091231D04324131280083
:106C7000FFF778FF03B030BDF0B5C646134B00B543
:106C80009846134D134E144F2B78002B11D1F369F6
:106C900004225F6041463000FFF7DAFF14242B78AE
:106CA000002BF1D13220013C0BF0D4FB002CF6D1AB
:106CB000E9E70A4C2068002803D00BF085FD00238B
:106CC000236000232B7004BC9046F0BD7C030020A1
:106CD000060C002000040020FDF9923684030020F9
:106CE00010B5047D82B0002C0DD05C1EA341402461
:106CF0005B421C40012380345B42009313000A0076
:106D00002100FFF72FFF002002B010BD70B590B03A
:106D1000040040226946C06813F0D8FA002821DD3B
:106D20006B461D78E3691A88002A1DD13F262E4044
:106D3000181D6B468018591C320004F03FFEE269B2
:106D4000002013889E193F2316809D430AD0E369D3
:106D5000402D1CD0802D17D002229A700022E369AA
:106D600018881A8010B070BD69B2002911DB3F2667
:106D700082212E40901949008842D9DDDC200CF098
:106D8000A5FDE3691A88D3E701229A70E6E79870B7
:106D9000E4E7DA200CF09AFDE3691A88E7E7C046D9
:106DA000802300B55B0083B09A420ADDC3695B684B
:106DB000009313000A004021FFF7D4FE002003B027
:106DC00000BDFFF745FFF9E7F0B5C64600B586B050
:106DD0000500FFF79BFF041E04D0EE69B778002F73
:106DE00005D00024200006B004BC9046F0BD7368B6
:106DF000F78098463389B380FFF7E0FC01234246D1
:106E0000A8612B75102A00D196E01BD9794A9045CC
:106E100000D18BE05FD9784A904547D0774A9045BA
:106E200066D0774A90454FD00123F380EB6940212B
:106E30001A1D01235B42009328000533FFF792FEE1
:106E40000024CFE7032A00D1C8E019D9082A7AD054
:106E5000092A00D0B1E031698B001033A34204D07D
:106E60008C20FF300CF032FD3169F3684A1E143675
:106E70000029DBD0F61AF15802C3013AFBD2D5E75C
:106E8000012A3ED0022ACFD15E4BDC685E4B621EE7
:106E9000FF3A9A4200D984E0200021F0A0FE0200CF
:106EA00021002800FFF77CFF04009BE7FFF7F8F9BB
:106EB000564B04901B68082204A9280003930593ED
:106EC0000024FFF7C5FE8DE7504AF1681268116093
:106ED0004F4A1370AAE74346202B56D0212BA3D14B
:106EE0004C4B1B68002B76D030000C3098479DE748
:106EF000494B28001A68494B1968FFF751FF0400F5
:106F000070E70223B3600333FF337361444BF760D0
:106F10003761B361EB6940211A1D01235B42009385
:106F200028001933FFF71EFE00245BE73D4B3E4A65
:106F30001A600AF0F3FB79E73C49280004C9FFF71F
:106F40002FFF04004EE7102C03D09220FF300CF0EE
:106F5000BDFC3469402C27D83100F3680831621E2B
:106F6000002C05D0C91A1868C8500433013AFAD267
:106F70000121EA69A4004942231D009104324131F4
:106F80002800FFF7EFFD00242CE7337B002B05D012
:106F9000274B284A1D60284B1A6047E7264A136092
:106FA00044E70322254C7BE79420FF300CF08EFC55
:106FB0003100F3680831621ED4E7042A00D033E7B9
:106FC0001F4B1F60BFF34F8F1E4B1F4ADA60BFF38A
:106FD0004F8FC046FDE70223F38027E7184B1B4A7B
:106FE0001A60BFF34F8F174B174ADA60BFF34F8F0A
:106FF000C046FDE793BD2011E066FC53101590706C
:107000003159A527F01F0000FF1E00004C0300208F
:10701000060C0020FC0300208803002084030020CD
:10702000882BED68047800207FACEBF0AC060020E4
:10703000800300202D6C0000F8030020D89A020085
:10704000FC7F002000ED00E00400FA05EF6926F067
:10705000074A00230832026020228360C360037164
:10706000036103754375C161835483617047C046F2
:10707000F89A0200F0B50400C56983B029002948D8
:107080000AF01EFEE369002B08DA03225B005B08AE
:10709000E361254B1B681A6003B0F0BD6068A91E50
:1070A0006B882A8809880190A06900901F480AF01F
:1070B00007FE2B881E4A934223D0D022D20193424E
:1070C00000D0FEE72600E3691A4FDA1CA2611A4AD3
:1070D00002331360194B2436194D38689B1B2B6003
:1070E000002801D00BF070FB28680BF043FB2A68E6
:1070F0003100386004F062FC0122124B9343E361DB
:10710000CAE7E3690233E3616368032BC4D1002259
:10711000054B1B681A608023A2691B061343A361F9
:10712000BAE7C046149B02004C0300201C9B0200DF
:1071300040680000840300207C03002000800020C1
:1071400088030020796C000000B56846FFF792FFC5
:1071500000BD7047F8B505000E00002826D00029B4
:1071600024D01C4F3C68002C03D10CE0246C002C74
:1071700009D023689D42F9D163689E42F6D1164832
:107180000AF09EFD10E015480AF09AFD442021F017
:10719000A0FC04000560466032000830290013F0AE
:1071A00087FB3B683C6023642000F8BD0C480AF074
:1071B00087FD012119204942FDF708F800F0C4FAC3
:1071C0000121050049421820FDF700F800F0BCFA43
:1071D0000600C6E78C030020509B0200689B02005B
:1071E000349B020010B5FFF7B5FF083010BDC04654
:1071F000F0B5C64600B5060082B00D0000201100B3
:1072000017009846FCF76CFA0400FEF747FD43466A
:10721000220030006D00A9B20832009308303B0014
:1072200013F004FB05006B425D416D4220002C40D1
:10723000FEF746FD200002B004BC9046F0BDC046FB
:1072400010B51C0082B04900536889B2083200941E
:10725000083013F0A9FA02B010BDC04670B5D318BB
:1072600072B615780132802441600326013EFDD1BB
:107270002C4200D101600626013EFDD10160641060
:1072800004D0E4B20226013EFDD1EDE79A4200D2DD
:10729000E7E762B670BDC046012110B5494204005F
:1072A0001320FCF793FF00F04FFA001B43425841B4
:1072B000C0B210BDF023F0B5DE464E4645465746F7
:1072C00094469946E0B556006644B14485B0804680
:1072D00048460391029221F0F1FB4A460021040046
:1072E000002605F097FD80228023782102988642AF
:1072F0001FDA6018077817430770571038D0FDB2AF
:10730000AA46039D9210AD5D94461D4205D00578B6
:10731000AB4655465A46154305706246002A33D19E
:10732000013140325B1021D1029801368033864210
:10733000DFDB00220021404600F082FD03680500EB
:107340001B681549984700222B680092DF684A465F
:10735000002321002800B847200021F0ABFB05B036
:107360003CBC90469946A246AB46F0BDDBB2BDE7B9
:10737000039A0131925D1A420BD080229246403A24
:10738000802794466018C2E7BA1003D101318022E9
:10739000C8E72022D2B2C5E7009F2400F8B5050057
:1073A0000F001600182A03D9FFF776FF002818D11E
:1073B0002B6800211B6828002C7C98471F23012183
:1073C000234099400A4B60119C46C0016044330041
:1073D0003A00FFF743FF2B6800211B6828009847FD
:1073E000F8BD320039002800FFF764FFF8E7C04617
:1073F00014440041F0B5D6464F464646C0B51E007F
:1074000003680C001B6800210700202598472368AB
:1074100001211B6820009847236800211B68200079
:10742000013D9847002DF2D1089B002B22D0B14698
:107430004B449A464B461B78082698468025414681
:1074400029404B1E99413B6838001B6898472368C8
:1074500001211B6820009847236800211B68200039
:10746000013E98476D08002EE9D101239C46E14476
:10747000CA45DFD13B6801211B68380098472025A9
:10748000236801211B6820009847236800211B689E
:107490002000013D9847002DF2D11CBC9046994632
:1074A000A246F0BDF0B5CE46474680B50A0083B08F
:1074B0000021984600F0C4FC002504000368184E23
:1074C0000095DF68042200233100B8472368009547
:1074D000DF680A9A002341462000B84723680095D8
:1074E000DD680422002331002000A8470A9BDF0842
:1074F00010D00C4B0025994600239846424623683D
:107500000092DE6804220023494620002035B0475F
:10751000BD42F3D303B00CBC90469946F0BDC046C3
:1075200090030020BC000020F0B5040083B00D00E3
:1075300017001E00002814D0002912D0002B10D0F4
:10754000089B002B0DD0182B03D9FFF7A5FE0028B0
:1075500009D1089B3A000093290033002000FFF76F
:1075600049FF03B0F0BD089B3A00009329003300A7
:107570002000FFF797FFF4E710B582B000280BD08A
:10758000002B09D05C68002C06D00833042A05D0F3
:1075900022001900FFF702FF02B010BD0094FFF7B0
:1075A000C3FFF9E7F0B5CE464746012180B583B069
:1075B00002AF49421420FCF709FE00F0C5F8002193
:1075C0000400C820FCF702FE002C01D000283FDA9E
:1075D000012108204942FCF7F9FD00F0B5F801212E
:1075E000060049420720FCF7F1FD00F0ADF800214C
:1075F0008046C920FCF7EAFD002E23D04346002B2D
:1076000020D000281EDD6A468400E31DDB08DB0075
:10761000D31AE9469D4602AD22000021280005F05C
:10762000F9FB002C05DD0023E022EA5404339C42E0
:10763000FBDC802200942B00520041463000FFF713
:10764000D9FECD46BD4601B00CBC90469946F0BD72
:107650006A4645002D18EB1DDB08DB00D31AE8460F
:107660009D4602AE2A000021300005F0D3FB002D1C
:1076700001D1C546ACE72A0031002000FFF78EFE9D
:10768000C546A5E7F0B5C646040400B5240C3F2C5A
:1076900027DC164E164D335D2868002B19D1154F87
:1076A000397801318900FEF799FA2860202021F00D
:1076B00010FA21008046E2B26431032313F066FC25
:1076C00041463A782868531CDBB292003B70115057
:1076D0003355094A944663449B00185804BC9046AD
:1076E000F0BDE320800006F0C3F9D2E79403002048
:1076F000D4030020070C0020FFFFFF3F012170B5DD
:1077000049420500FCF762FD0400431C03D0200041
:10771000FFF7B8FF70BD290001480AF0D1FAF6E77B
:10772000849B020070B504000D003F2803D9E320BC
:10773000800006F09DF92800FFF7A4FF014B5A5D79
:107740001A5570BD9403002010B5002806DBFF28F1
:1077500004D00004000CFFF795FF10BD0020FCE7EB
:10776000012110B54942FCF731FD002806DBFF2856
:1077700004D00004000CFFF785FF10BD0020FCE7DB
:10778000084B10B55C1CFF3402E00433A34207D061
:107790001A68002AF9D091888142F6D1100010BDF4
:1077A0000022FBE7AC05002010B5FFF7D9FF10BDA4
:1077B00010B501000020FBF793FF10BD014B986846
:1077C0007047C046D802002010B503685B6998472F
:1077D00010BDC04610B50368DB68984710BDC046B1
:1077E0007047C0460048704716FCFFFF044B10B5B9
:1077F000036000230400C3800AF040F9200010BD9C
:107800009C9B0200064B10B5036000230400C3805C
:107810000AF034F9200021F04DF9200010BDC046D7
:107820009C9B0200044B10B5036000230400C3803E
:107830000AF024F9200010BD9C9B0200064B10B5F5
:10784000036000230400C3800AF018F9200021F02F
:1078500031F9200010BDC0469C9B0200F0B5CE4619
:1078600047462C2380B5C35C85B00400002B04D1AF
:1078700005B00CBC90469946F0BD806800210368B5
:1078800008261B689847A0680121036800271B6829
:1078900098472069012103687F009B68984700286A
:1078A00001D001231F43E06800210368013E1B68EB
:1078B0009847E068012103681B689847002EE8D1CB
:1078C000A3695F4063699F42D2D0260001231C3622
:1078D0000025984612E000290CD1114B994601234E
:1078E0004946684610F0E4FB0123002249466846F9
:1078F00010F0DEFB01350236082D0ED03288002A4A
:10790000F8D04346AB401900606939401842E2D1D3
:107910000029EFD0034B9946E1E76761A8E7C0462D
:107920000208000003080000036810B55B68984770
:10793000431E9841C0B210BD10B503681B6898473C
:1079400010BDC04670B50D00160004000368032189
:10795000DB6C98473200290020891023FFF744F898
:1079600070BDC04670B505000C00160002290EDB84
:1079700003290DDD05290ADC03210368DB6C2800DF
:1079800098472889102332002100FFF72DF870BD99
:1079900003680221DB6CF2E7F0B504394F46464636
:1079A000D6464B424B41C0B59146984606000CF076
:1079B000E5FE4B4604000D00DF17336830005B68BE
:1079C0009847824640450ED00CF0D8FE001BA941D6
:1079D000B94202D8F1D18145EFD200201CBC9046BB
:1079E0009946A246F0BD0CF0C9FE804633683000CF
:1079F0005B68984782450ED10CF0C0FE001BA94180
:107A0000B942EAD8F2D18145E7D3336830005B68E8
:107A100098478245F0D00CF0B1FE4346C01ADDE72E
:107A200010B50123002903D001394B4259414B00C5
:107A300002681900126C904710BDC046F8B5274D7A
:107A40002C68002C01D02000F8BD302021F041F836
:107A50000027234B47600360040009F09BFF0121CE
:107A6000204B494223604720FCF7B0FBFFF76CFE38
:107A70000121A06049424820FCF7A8FBFFF764FE03
:107A80000121E06049424920FCF7A0FBFFF75CFEC2
:107A9000FA231B01A3808023E2889B011343060085
:107AA0002061E38001222C2320006761A76100216F
:107AB000E2541C300F3205F0ADF9336801219B68A8
:107AC00030009847A068012103681B689847E06868
:107AD000012103681B6898472C60B4E7D803002095
